:020000040800F2
:1000000098060020890100088D0100088F01000872
:10001000910100089301000895010008000000000C
:100020000000000000000000000000009701000830
:1000300099010008000000009B0100089D010008D4
:100040009F0100089F0100089F0100089F01000810
:100050009F0100089F0100089F0100089F01000800
:100060009F0100089F0100089F0100089F010008F0
:100070009F0100089F0100089F0100089F010008E0
:100080009F0100089F0100089F0100082D13000830
:100090002F1300083B0200089F0100089F01000881
:1000A0009F0100089F0100089F0100089F010008B0
:1000B0009F0100089F0100089F0100089F010008A0
:1000C0009F0100089F0100089F0100089F01000890
:1000D0009F0100089F0100089F0100089F01000880
:1000E0009F0100089F0100089F01000800F002F82E
:1000F00000F03AF80AA090E8000C82448344AAF188
:100100000107DA4501D100F02FF8AFF2090EBAE885
:100110000F0013F0010F18BFFB1A43F0010318473B
:10012000D8130000F8130000103A24BF78C878C133
:10013000FAD8520724BF30C830C144BF04680C60ED
:10014000704700000023002400250026103A28BF35
:1001500078C1FBD8520728BF30C148BF0B60704739
:100160001FB51FBD10B510BD00F02DF81146FFF7EB
:10017000F7FF01F0DDF800F04BF803B4FFF7F2FFF2
:1001800003BC00F053F8000008480047FEE7FEE714
:10019000FEE7FEE7FEE7FEE7FEE7FEE7FEE7FEE737
:1001A00003480449044A054B70470000ED0000086D
:1001B0009800002098060020980200209802002055
:1001C000704770477047754600F02CF8AE46050042
:1001D0006946534620F00700854618B020B5FFF762
:1001E000DFFFBDE820404FF000064FF000074FF062
:1001F00000084FF0000B21F00701AC46ACE8C00945
:10020000ACE8C009ACE8C009ACE8C0098D4670474D
:1002100010B50446AFF300802046BDE81040FFF75C
:10022000ACBF00000048704738000020014918208A
:10023000ABBEFEE726000200704770472DE9F0478D
:10024000044600250026FE48007830B1062300222F
:100250001146782000F090FA012534B901230022DC
:100260001146782000F088FA0125002D7ED1012763
:10027000DFF8D0C38CF800700227DFF8C4C38CF815
:100280000070F14F3F6827F00207DFF8BCC3CCF8DD
:10029000007067463F6847F00107CCF8007000BF68
:1002A000E94F3F1D3F6807F00107002FF8D0E64FE8
:1002B0003F6827F08007DFF890C3CCF800706746EE
:1002C0003F6827F04007CCF8007067463F6827F08A
:1002D0002007CCF8007067463F6847F01007CCF85D
:1002E000007067463F6827F00807CCF80070674643
:1002F0003F6827F00407CCF800700022D34FDFF8E6
:1003000050C3CCF80070D04F1C373F6827F04047EF
:10031000DFF834C30CF11C0CCCF8007000BF54E0C3
:1003200002EB4207DFF828C3DCF800C03CF8177086
:10033000B7F5FA7F47D102EB4207DFF814C3DCF8C8
:1003400000C00CEB4707BF7802EB420CDFF80083DC
:10035000D8F8008008EB4C0C9CF803C06744FEB250
:100360000027DFF8E4C20CF11C0C00E07BE1CCF8C4
:100370000070370402EB420CDFF8D482D8F800801A
:1003800008EB4C0C9CF804C047EA0C5702EB420CFB
:10039000DFF8BC82D8F8008008EB4C0C9CF805C054
:1003A00047EA0C6747F00807DFF89CC20CF11C0C09
:1003B000DCF800C047EA0C07DFF88CC20CF11C0C1B
:1003C000CCF8007003E0571CFAB2042AA8D300BF8F
:1003D0009D4F3F6827F00207DFF86CC2CCF8007031
:1003E00067463F6827F00107CCF8007000BF964FC2
:1003F0003F1D3F6807F00107002FF8D000200023C1
:100400000021944F3F6847F00107DFF848C2CCF85D
:10041000007000BF0BE100EB400C8C4F543717F815
:100420002C30012707FA03F18A4F1C373F688F43AE
:10043000DFF820C20CF11C0CCCF8007000EB400C73
:10044000824F543707EB8C07BF78EFBB814F0C37D7
:100450003F688F43DFF8FCC10CF10C0CCCF8007046
:1004600000EB400C794F543707EB8C07BF881FFA1D
:1004700087FC00EB4008754F543707EB88073F892E
:100480004CEA0748734F403700EB4009DFF8BCC126
:100490000CF1540C1CF829C047F83C8000EB400CD0
:1004A0006A4F543707EB8C073F894FF6FF7C0CEA05
:1004B000074700EB4008DFF894C10CF1540C0CEB3B
:1004C000880CBCF804C000E016E04FF6FF7808EA9C
:1004D0000C4C47EA0C07DFF87CC10CF1400C00EB38
:1004E0004009DFF8688108F1540818F829800CEBFE
:1004F000C80CCCF8047042E000EB400C534F54376A
:1005000007EB8C07BF78012F39D1524F0C373F686A
:100510000F43DFF840C10CF10C0CCCF8007000EB7D
:10052000400C4A4F543707EB8C07BF88DFF828C1CF
:100530000CEA4758474F403700EB4009DFF80CC141
:100540000CF1540C1CF829C047F83C8000EB400C1F
:100550003E4F543707EB8C073F89DFF8FCC00CEAAD
:1005600047583C4F403700EB4009DFF8E0C00CF142
:10057000540C1CF829C007EBCC07C7F8048000EB2B
:10058000400C324F543707EB8C077F7857B9314F07
:100590003F1D3F688F43DFF8BCC00CF1040CCCF862
:1005A000007012E000EB400C284F543707EB8C072B
:1005B0007F78012F09D1274F3F1D3F680F43DFF898
:1005C00094C00CF1040CCCF8007000EB400C1F4FF1
:1005D000543707EB8C07FF7857B91E4F14373F6825
:1005E0008F43DFF870C00CF1140CCCF8007012E0EF
:1005F00000EB400C154F543707EB8C07FF78012FA9
:1006000009D1144F14373F680F43DFF848C00CF18D
:10061000140CCCF800700F4F1C373F680F43DFF805
:1006200034C00CF11C0CCCF80070471CF8B2032845
:10063000FFF4F1AE074F3F6827F001070EE000001E
:10064000010000200000002000640040901300081A
:1006500004000020006600400000F0FFDFF810C03A
:10066000CCF8007000BF012002490870BDE8F08797
:10067000006600400100002070B504460A460023D1
:10068000002101203A4D2D6805F08065B5F1806F9D
:1006900000D113E0364D2D6805F00065B5F1006F0F
:1006A00001D101210AE0324D2D6805F08055B5F1E8
:1006B000805F01D1022101E032210220322955D090
:1006C00000262C4D05EB01152E602A4D05EB01157A
:1006D0002D6805F00106274D05EB01152E60254D0F
:1006E00005EB01152D68968845EA4656214D05EB28
:1006F00001152E60957805F00F031E4D05EB0115D1
:100700006D689D431B4E06EB01167560194D05EB98
:1007100001156D681D43174E06EB01167560D57AFD
:100720002E06957A46EA0546557A46EA0525167A52
:100730003543104E06EB0116B560D57B2E06957B32
:1007400046EA0546557B46EA0526157B2E43094DAC
:1007500005EB0115EE60074D05EB01152D6845F021
:100760000106044D05EB01152E60002070BD000050
:10077000086400408065004000BFFEE7084800684C
:1007800040F01000064908600846006820F00300A9
:1007900008600846006840F00200086070470000EA
:1007A000002002401148006840F001000F49086035
:1007B000084640680E4908400C49486008460068F1
:1007C0000C490840094908600846006820F4802068
:1007D00008600846406820F4FE0048604FF41F009F
:1007E0008860054805490860704700000010024015
:1007F0000000FFF8FFFFF6FE0020024008ED00E0D9
:1008000010B5044600200549087004F10C000449A5
:10081000086004480460FFF7C5FF10BD1C000020FD
:1008200014000020180000202DE9F0410446FFF7D5
:10083000A5FF4FF00108F848006810B14FF000081C
:1008400002E04046BDE8F08104EB4400F24909684B
:1008500001EB80004068482815D104EB4400EE49C4
:10086000096801EB8000007A68B904EB4400EA49AA
:10087000096801EB8000407A28B90B23022200218D
:100880006520FFF779FF04EB4400E349096801EBB9
:100890008000007900F0070008B1012600E0002682
:1008A00004EB4400DC49096801EB8000406808283B
:1008B00006D104EB4400D849096811F8207021E002
:1008C00004EB4400D449096801EB8000007900F092
:1008D000070058B104EB4400CF49096801EB8000E0
:1008E00080880221C1EB9000C5B20AE004EB44000D
:1008F000C949096801EB800080880221C1EBD00062
:10090000C5B2022704EB4400C349096811F820006E
:1009100001280DD1C148006840F48030BF4908600B
:1009200000BFBE48006800F400300028F9D013E092
:1009300004EB4400B849096811F8200060B9B748D1
:10094000006840F00100B549086000BFB348006886
:1009500000F002000028F9D0B048406843F6F0717A
:100960008843AE4948600846406804EB4401AA4AFF
:10097000126802EB8101097A40EA0110A749486038
:100980000846406804EB4401A34A126802EB810167
:10099000497A40EA0120A14948600846406804EBD2
:1009A00044019D4A126802EB8101897A40EAC12024
:1009B0009A49486004EB44009749096801EB8000BC
:1009C0004068082831D09548406820F48030934929
:1009D00048600846406804EB44018F4A126812F8E8
:1009E000211040EA01408D4948600846406820F4E3
:1009F000003048600846406840EA46404860084683
:100A0000406820F4701048600846406840EA85401D
:100A100048600846006840F08070086000BF7F486A
:100A2000006800F000700028F9D07C48406820F091
:100A300003007A494860084640683843486004EB40
:100A400044007549096801EB8000406874490860FA
:100A500004EB44007049096801EB8000007A10281B
:100A60003ED2DFE800F0083D3D3D3D3D3D3D0D13EC
:100A7000191F252B31376A4800686A4908602FE042
:100A80006748006840086749086029E064480068D2
:100A900080086449086023E061480068C008614933
:100AA00008601DE05E48006800095E49086017E0C4
:100AB0005B48006880095B49086011E0584800689D
:100AC000C009584908600BE055480068000A5549BC
:100AD000086005E052480068400A5249086000BFBB
:100AE00000BF04EB44004C49096801EB8000407AE8
:100AF000082822D2DFE800F004212121090F151B6C
:100B0000484800684749086017E0464800684008C0
:100B10004449086011E04348006880084149086082
:100B20000BE040480068C0083E49086005E03D48C9
:100B3000006800093B49086000BF00BF3A480068F0
:100B4000C078010338480068407941EA803136486E
:100B50000068007841EA800133480068407841EA43
:100B6000C00131480068807841EA00102B4989694A
:100B700008432A4988612C480068007981032A4883
:100B80000068807941EA404127480068C07941EA1D
:100B9000406025490968097A084323490968497A68
:100BA00040EA410120480068807A41EA80001B4900
:100BB000C96908431949C8611B480068C078012801
:100BC00022D019480068007901281DD01648006815
:100BD0004079012818D0144800688079012813D082
:100BE00011480068C07901280ED00F480068007ACB
:100BF000012809D00C480068407A012804D00A482E
:100C00000068407A012805D10448806940F001005D
:100C100002498861404615E6140000200010024099
:100C20000C00002010000020180000202DE9F041E9
:100C3000074600240026002537B91023002211465C
:100C40007820FFF799FD6CE30120F9490870F94815
:100C50000760002462E304EB4400F649096811F8D8
:100C6000100020B101281BD002284BD131E0F24EF8
:100C700004EB4400EF49096801EB400040780F287D
:100C80000DDC04EB4400EB49096801EB40004078BF
:100C9000072802DCE84D103D01E0E74D0C3D32E055
:100CA000E64E04EB4400E349096801EB400040785C
:100CB0000F280DDC04EB4400DE49096801EB40001D
:100CC0004078072802DCDD4D103D01E0DB4D0C3D96
:100CD00019E0DB4E04EB4400D649096801EB400003
:100CE00040780F280DDC04EB4400D249096801EB81
:100CF00040004078072802DCD14D103D01E0D04D86
:100D00000C3D00E000BF00BF04EB4400C949096886
:100D100001EB4000C07801280CD1306804EB44019D
:100D2000C44A126802EB41014A780121914008430C
:100D3000306014E004EB4400BE49096801EB400058
:100D4000C07860B9306804EB4401BA4A126802EB1B
:100D500041014978103101228A401043306004EB90
:100D60004400B449096801EB4000807800287DD137
:100D700004EB4400AF49096801EB400040790428C6
:100D800006D0052857D0062871D0072870D1FCE07E
:100D900004EB4400A749096801EB400040780828AB
:100DA0001ADA286804EB4401A24A126802EB4101F6
:100DB00049788A00FF21914088432860286804EB25
:100DC00044019C4A126802EB410149788A000021E3
:100DD0009140084328602DE004EB440095490968E0
:100DE00001EB40004078102824DA04EB44009149DC
:100DF000096801EB4000407808281BDB286804EBF9
:100E000044018C4A126802EB4101497808398A0092
:100E1000FF21914088432860286804EB4401854AFB
:100E2000126802EB4101497808398A00002191409B
:100E30000843286007E104EB44007E49096801EBA0
:100E40004000407808281EDA286804EB4401794AFB
:100E5000126802EB410149788A00FF2191408843E2
:100E60002860286804EB4401724A02E0ECE039E0B3
:100E7000E8E0126802EB410149788A0004219140C0
:100E8000084328602DE004EB44006A49096801EB3F
:100E900040004078102824DA04EB440065490968D2
:100EA00001EB4000407808281BDB286804EB440174
:100EB000604A126802EB4101497808398A00FF2133
:100EC000914088432860286804EB4401594A12681D
:100ED00002EB4101497808398A0004219140084316
:100EE0002860B0E004EB44005249096801EB40007F
:100EF000407808281ADA286804EB44014D4A126841
:100F000002EB410149788A00FF2191408843286023
:100F1000286804EB4401474A126802EB4101497812
:100F20008A0008219140084328602DE004EB44002A
:100F30004049096801EB40004078102824DA04EBAE
:100F400044003C49096801EB4000407808281BDB5D
:100F5000286804EB4401374A126802EB41014978E2
:100F600008398A00FF21914088432860286804EBF3
:100F70004401304A126802EB4101497808398A007D
:100F800008219140084328605DE004EB44002949B2
:100F9000096801EB4000407808281ADA286804EB59
:100FA0004401244A126802EB410149788A00FF217A
:100FB000914088432860286804EB44011D4A126868
:100FC00002EB410149788A000821914008432860DA
:100FD0002DE004EB44001749096801EB400040781C
:100FE000102824DA04EB44001249096801EB4000A0
:100FF000407808281BDB286804EB44010D4A12687E
:1010000002EB4101497808398A00FF219140884369
:101010002860286804EB4401064A126802EB41018B
:10102000497808398A0008219140084328600AE07D
:10103000240000202000002010080140100C014076
:101040001010014000BF67E104EB4400B649096895
:1010500001EB400080780128F5D104EB4400B2494F
:10106000096801EB4000407930B1012857D00228CF
:1010700079D0032878D1FAE004EB4400AA49096842
:1010800001EB4000407808281ADA286804EB440194
:10109000A54A126802EB410149788A00FF2191407C
:1010A00088432860286804EB44019F4A126802EBD9
:1010B000410149788A000F219140084328602DE0C2
:1010C00004EB44009849096801EB4000407810287F
:1010D00024DA04EB44009449096801EB40004078AD
:1010E00008281BDB286804EB44018F4A126802EBD6
:1010F0004101497808398A00FF21914088432860DE
:10110000286804EB4401884A126802EB41014978DF
:1011100008398A000F21914008432860FBE004EB66
:1011200044008149096801EB4000407808281CDA36
:10113000286804EB44017C4A126802EB41014978BB
:101140008A00FF21914088432860286804EB44010D
:10115000754A126802EB410149788A000B219140DF
:10116000084328602FE02FE0D4E004EB44006E49F0
:10117000096801EB40004078102824DA04EB4400B1
:101180006949096801EB4000407808281BDB2868A2
:1011900004EB4401644A126802EB410149780839C2
:1011A0008A00FF21914088432860286804EB4401AD
:1011B0005D4A126802EB4101497808398A000B2127
:1011C000914008432860A6E004EB440056490968B2
:1011D00001EB4000407808281ADA286804EB440143
:1011E000514A126802EB410149788A00FF2191407F
:1011F00088432860286804EB44014B4A126802EBDC
:10120000410149788A0007219140084328602DE078
:1012100004EB44004449096801EB40004078102881
:1012200024DA04EB44004049096801EB40004078AF
:1012300008281BDB286804EB44013B4A126802EBD8
:101240004101497808398A00FF219140884328608C
:10125000286804EB4401344A126802EB41014978E2
:1012600008398A00072191400843286053E004EBC5
:1012700044002D49096801EB4000407808281ADA3B
:10128000286804EB4401284A126802EB41014978BE
:101290008A00FF21914088432860286804EB4401BC
:1012A000214A126802EB410149788A0003219140EA
:1012B000084328602DE004EB44001B49096801EB5A
:1012C00040004078102824DA04EB440016490968ED
:1012D00001EB4000407808281BDB286804EB440140
:1012E000114A126802EB4101497808398A00FF214E
:1012F000914088432860286804EB44010A4A126838
:1013000002EB4101497808398A00032191400843E2
:10131000286000E000BF00BF601CC4B2202CFFF6B4
:101320009AACBDE8F08100002000002070477047B3
:101330001348FFF765FA0020FFF776FA1148FFF728
:1013400075FC1148FEF77AFF40F223100F49486000
:10135000012088706120087200246FF07F450DE045
:101360000A490020FFF788F90848007A401C07491D
:101370000872002400E0641CAC42FCD3F0E70000DB
:1013800008140008381400089013000828000020F2
:10139000FA000A0F0300F401010B0100200301060B
:1013A0000000E8030104000000000100000002004A
:1013B0000000000001000100020001000000010027
:1013C000020002000200000101000300020003000D
:1013D00000010100040002000300000101000500FB
:1013E000020003000000010050000000FF070000A1
:1013F0000101010100010000FF07000002000100DF
:1014000010010000FF0700000101010101010101BD
:10141000010101000100000048000000000401007B
:1014200000000000080000000004010000000000AF
:101430000000000000000010000001000201000197
:101440000100020200020100020300030000020486
:10145000000400000205000500000206000600006E
:101460000207000701000200000801000205000950
:1014700001000205000A01000205000B000002063F
:10148000000C01000201000F010002050100010033
:10149000020501010100020501030100020501042A
:1014A0000100020501050100020501060100020517
:1014B0000107010002050108010002050109010000
:1014C0000205010A01010205010B01000205010CE0
:1014D00001000205010D01010205010E01000205D6
:1014E000010F01000205020D01000203020E0101BD
:1014F0000205020F01010205181500080000002076
:1015000028000000280100084015000828000020DD
:101510007006000044010008000000000000000008
:1015200000000000000000000000000000000000BB
:1015300000000000010000000000000000000000AA
:040000050800018965
:00000001FF
