:020000040800F2
:100000008006002089010008910100089301000882
:100010009501000897010008990100080000000000
:100020000000000000000000000000009B0100082C
:100030009D010008000000009F010008A1010008C8
:10004000A3010008A3010008A3010008A301000800
:10005000A3010008A3010008A3010008A3010008F0
:10006000A3010008A3010008A3010008A3010008E0
:10007000A3010008A3010008A3010008A3010008D0
:10008000A3010008A3010008A3010008A3010008C0
:10009000A3010008A3010008A3010008A3010008B0
:1000A000A3010008A3010008A3010008A3010008A0
:1000B000A3010008A3010008A3010008A301000890
:1000C000A3010008A3010008A3010008A301000880
:1000D000A3010008A3010008A3010008A301000870
:1000E000A3010008A3010008A301000800F002F822
:1000F00000F03AF80AA090E8000C82448344AAF188
:100100000107DA4501D100F02FF8AFF2090EBAE885
:100110000F0013F0010F18BFFB1A43F0010318473B
:1001200098080000B8080000103A24BF78C878C1C9
:10013000FAD8520724BF30C830C144BF04680C60ED
:10014000704700000023002400250026103A28BF35
:1001500078C1FBD8520728BF30C148BF0B60704739
:100160001FB51FBD10B510BD00F031F81146FFF7E7
:10017000F7FF00F0ABFB00F04FF803B4FFF7F2FF1E
:1001800003BC00F057F800000948804709480047C1
:10019000FEE7FEE7FEE7FEE7FEE7FEE7FEE7FEE737
:1001A000FEE7FEE704480549054A064B7047000094
:1001B0006D080008ED000008800000208006002087
:1001C000800200208002002070477047704775460B
:1001D00000F02CF8AE4605006946534620F00700B3
:1001E000854618B020B5FFF7DDFFBDE820404FF091
:1001F00000064FF000074FF000084FF0000B21F011
:100200000701AC46ACE8C009ACE8C009ACE8C009DD
:10021000ACE8C0098D46704710B50446AFF30080C6
:100220002046BDE81040FFF7A8BF00000048704717
:100230001C00002001491820ABBEFEE7260002008A
:10024000704700002DE9F047044600250026FE48CF
:10025000007830B1062300221146782000F090FA91
:10026000012534B9012300221146782000F088FAD4
:100270000125002D7ED10127DFF8D0C38CF8007056
:100280000227DFF8C4C38CF80070F14F3F6827F0F5
:100290000207DFF8BCC3CCF8007067463F6847F040
:1002A0000107CCF8007000BFE94F3F1D3F6807F021
:1002B0000107002FF8D0E64F3F6827F08007DFF8EE
:1002C00090C3CCF8007067463F6827F04007CCF831
:1002D000007067463F6827F02007CCF8007067463B
:1002E0003F6847F01007CCF8007067463F6827F07A
:1002F0000807CCF8007067463F6827F00407CCF881
:1003000000700022D34FDFF850C3CCF80070D04FFC
:100310001C373F6827F04047DFF834C30CF11C0C52
:10032000CCF8007000BF54E002EB4207DFF828C3AE
:10033000DCF800C03CF81770B7F5487F47D102EBF6
:100340004207DFF814C3DCF800C00CEB4707BF78A6
:1003500002EB420CDFF80083D8F8008008EB4C0C6D
:100360009CF803C06744FEB20027DFF8E4C20CF13A
:100370001C0C00E07BE1CCF80070370402EB420C6F
:10038000DFF8D482D8F8008008EB4C0C9CF804C04D
:1003900047EA0C5702EB420CDFF8BC82D8F8008029
:1003A00008EB4C0C9CF805C047EA0C6747F00807BF
:1003B000DFF89CC20CF11C0CDCF800C047EA0C070B
:1003C000DFF88CC20CF11C0CCCF8007003E0571C59
:1003D000FAB2042AA8D300BF9D4F3F6827F0020756
:1003E000DFF86CC2CCF8007067463F6827F0010761
:1003F000CCF8007000BF964F3F1D3F6807F0010723
:10040000002FF8D0002000230021944F3F6847F0D0
:100410000107DFF848C2CCF8007000BF0BE100EB29
:10042000400C8C4F543717F82C30012707FA03F192
:100430008A4F1C373F688F43DFF820C20CF11C0C39
:10044000CCF8007000EB400C824F543707EB8C0760
:10045000BF78EFBB814F0C373F688F43DFF8FCC19B
:100460000CF10C0CCCF8007000EB400C794F5437B9
:1004700007EB8C07BF881FFA87FC00EB4008754F1D
:10048000543707EB88073F894CEA0748734F4037DA
:1004900000EB4009DFF8BCC10CF1540C1CF829C07A
:1004A00047F83C8000EB400C6A4F543707EB8C0751
:1004B0003F894FF6FF7C0CEA074700EB4008DFF866
:1004C00094C10CF1540C0CEB880CBCF804C000E097
:1004D00016E04FF6FF7808EA0C4C47EA0C07DFF805
:1004E0007CC10CF1400C00EB4009DFF8688108F199
:1004F000540818F829800CEBC80CCCF8047042E0C2
:1005000000EB400C534F543707EB8C07BF78012F9B
:1005100039D1524F0C373F680F43DFF840C10CF11F
:100520000C0CCCF8007000EB400C4A4F543707EB32
:100530008C07BF88DFF828C10CEA4758474F40377F
:1005400000EB4009DFF80CC10CF1540C1CF829C079
:1005500047F83C8000EB400C3E4F543707EB8C07CC
:100560003F89DFF8FCC00CEA47583C4F403700EBAE
:100570004009DFF8E0C00CF1540C1CF829C007EB6F
:10058000CC07C7F8048000EB400C324F543707EB20
:100590008C077F7857B9314F3F1D3F688F43DFF895
:1005A000BCC00CF1040CCCF8007012E000EB400C65
:1005B000284F543707EB8C077F78012F09D1274F3D
:1005C0003F1D3F680F43DFF894C00CF1040CCCF8DA
:1005D000007000EB400C1F4F543707EB8C07FF787F
:1005E00057B91E4F14373F688F43DFF870C00CF1C6
:1005F000140CCCF8007012E000EB400C154F54378F
:1006000007EB8C07FF78012F09D1144F14373F688F
:100610000F43DFF848C00CF1140CCCF800700F4FFA
:100620001C373F680F43DFF834C00CF11C0CCCF8CA
:100630000070471CF8B20328FFF4F1AE074F3F6883
:1006400027F001070EE0000001000020000000205C
:1006500000640040400900080400002000660040DB
:100660000000F0FFDFF810C0CCF8007000BF0120E0
:1006700002490870BDE8F0870066004001000020D4
:1006800070B504460A460023002101203A4D2D682A
:1006900005F08065B5F1806F00D113E0364D2D680F
:1006A00005F00065B5F1006F01D101210AE0324D7E
:1006B0002D6805F08055B5F1805F01D1022101E080
:1006C00032210220322955D000262C4D05EB011590
:1006D0002E602A4D05EB01152D6805F00106274D0A
:1006E00005EB01152E60254D05EB01152D6896884B
:1006F00045EA4656214D05EB01152E60957805F02B
:100700000F031E4D05EB01156D689D431B4E06EB57
:1007100001167560194D05EB01156D681D43174EE7
:1007200006EB01167560D57A2E06957A46EA0546DF
:10073000557A46EA0525167A3543104E06EB011622
:10074000B560D57B2E06957B46EA0546557B46EA85
:100750000526157B2E43094D05EB0115EE60074D6F
:1007600005EB01152D6845F00106044D05EB01155B
:100770002E60002070BD00000864004080650040CD
:1007800000BFFEE710B500F001F810BD0CB5002069
:10079000019000903348006840F48030314908608F
:1007A00000BF3048006800F4003000900198401C01
:1007B0000190009818B90198B0F5A06FF1D12948BF
:1007C000006800F4003010B10120009001E000202A
:1007D00000900098012843D12348006840F01000A1
:1007E000214908600846006820F0030008600846B8
:1007F000006840F0020008601A48406819494860E3
:100800000846406848600846406840F48060486098
:100810000846406820F47C1048600846406840F470
:10082000E81048600846006840F08070086000BF2B
:100830000C48006800F000700028F9D009484068B2
:1008400020F00300074948600846406840F0020075
:10085000486000BF0348406800F00C000828F9D148
:100860000CBD0000001002400020024010B51348EB
:10087000006840F0010011490860084640681049CE
:1008800008400E494860084600680E4908400B4978
:1008900008600846006820F4802008600846406828
:1008A00020F4FE0048604FF41F008860FFF76AFFE5
:1008B0004FF000600449086010BD000000100240C5
:1008C0000000FFF8FFFFF6FE08ED00E01848C069E1
:1008D00040F000701649C8610846806940F0050084
:1008E00088611448006820F4704012490860084686
:1008F000006840F4004008600846006820F470205A
:1009000008600846006840F4302008600A48FFF795
:1009100099FC40F223100949486001208870612049
:10092000087203E005490020FFF7AAFEFAE700007D
:100930000010024004080140400900080C0000209B
:10094000FA000A0F0300F401010B01002003010665
:100950000000E803010400000000010000000200A4
:100960000000000001000100020001000000010081
:100970000200020002000001010003000200030067
:100980000001010004000200030000010100050055
:10099000020003000000010050000000FF070000FB
:1009A0000101010100010000FF0700000200010039
:1009B00010010000FF070000D80900080000002017
:1009C0000C00000028010008E40900080C000020C9
:1009D0007406000044010008000000000000000050
:0409E0000000000013
:040000050800018965
:00000001FF
